:100000000C9434000C943E000C943E000C943E0082
:100010000C943E000C943E000C943E000C943E0068
:100020000C943E000C943E000C943E000C943E0058
:100030000C943E000C943E000C943E000C943E0048
:100040000C943E000C943E000C943E000C943E0038
:100050000C943E000C943E000C943E000C943E0028
:100060000C943E000C943E0011241FBECFEFD8E04C
:10007000DEBFCDBF0E9440000C9472000C940000C3
:10008000DF93CF93CDB7DEB7AAE2B0E0EAE2F0E0CB
:1000900080818D7F8C93AAE2B0E0EAE2F0E080817B
:1000A00080618C93ABE2B0E0EBE2F0E080818260B3
:1000B0008C93E9E2F0E08081882F90E0827090706C
:1000C000009741F4ABE2B0E0EBE2F0E080818061C8
:1000D0008C93EFCFABE2B0E0EBE2F0E080818F7E7B
:0800E0008C93E7CFF894FFCFE9
:00000001FF
