:100000000C9434000C9446000C9446000C9446006A
:100010000C9446000C9446000C9446000C94460048
:100020000C9446000C9446000C9446000C94460038
:100030000C9446000C9446000C9446000C94460028
:100040000C9446000C9446000C9446000C94460018
:100050000C9446000C9446000C9446000C94460008
:100060000C9446000C94460011241FBECFEFD8E03C
:10007000DEBFCDBF11E0A0E0B1E001C01D92A13014
:10008000B107E1F70E9448000C94F1000C940000C5
:10009000DF93CF930F92CDB7DEB7A4E2B0E0E4E2F6
:1000A000F0E0808182608C93AAE2B0E0EAE2F0E0C6
:1000B00080818D7F8C93AAE2B0E0EAE2F0E080815B
:1000C00080618C93A7E2B0E0E7E2F0E0808181609C
:1000D0008C93ABE2B0E0EBE2F0E0808182608C9345
:1000E000EAE7F0E087E88083ECE7F0E080EE8083E9
:1000F000AAE7B0E0EAE7F0E0808180648C93EAE769
:10010000F0E08081E9E7F0E0808180930001809158
:1001100000010E94A400E9E2F0E08081882F90E0D5
:1001200082709070009741F4ABE2B0E0EBE2F0E057
:10013000808180618C93DCCFABE2B0E0EBE2F0E059
:1001400080818F7E8C93D4CFDF93CF9300D000D06B
:10015000CDB7DEB78C838C819AE0692F0E94E500D1
:100160008B838B818A838C819AE0692F0E94E500C2
:10017000892F89838A81882F90E09C01220F331F69
:10018000C901880F991F880F991F280F391F89816E
:10019000882F90E0820F931F8432910544F0A5E2EE
:1001A000B0E0E5E2F0E0808182608C9307C0A5E2D8
:1001B000B0E0E5E2F0E080818D7F8C930F900F90AE
:1001C0000F900F90CF91DF910895991B79E004C0B3
:1001D000991F961708F0961B881F7A95C9F7809586
:0601E0000895F894FFCF22
:00000001FF
